:030000000200C635
:0C00C600787FE4F6D8FD75813A02010D48
:1003FF007FBFDFEFF7FBFDFE8040201008040201F6
:10037300140E000000000000000000000000000058
:100383000000000000001422000000000000000034
:0C0393000000000000000000000000005E
:0C040F00E4F50EF522750A01750D0222BD
:0A03C6009003FF93F5807F147E0082
:0B03D000EF1FAC0670011E4C70F622FF
:1003A000C2B6C2B5E4FEEFC4131313540124FF9286
:1003B000B4EF25E0FFD2B60000C2B60EBE08E7D209
:0503C000B50000C2B50C
:0103C5002215
:10022A00E50A14FFEFD39400401B740D2FF8E6FE85
:10023A00740E2FF8A60674212FF8E6FE74222FF802
:10024A00A6061F80DFE50D24FE600D14600D146004
:10025A000D2403700B152222052222150E22050EEB
:01026A002271
:10000E0020B12D75A0FE7FE87E031203D020B11D16
:10001E00E50DB404047F0180027F00E50DB40304F6
:10002E007E0180027E00EE4F6003750D0130B1FD42
:10003E0020B02A7FE87E031203D020B01DE50DB458
:10004E0004047F0180027F00E50DB403047E01806D
:10005E00027E00EE4F6003750D0230B0FD20B22A15
:10006E007F647E001203D020B21DE50DB402047F22
:10007E000180027F00E50DB401047E0180027E0046
:10008E00EE4F6003750D0330B2FD20B32A7FE87E7C
:10009E00031203D020B31DE50DB402047F018002CC
:1000AE007F00E50DB401047E0180027E00EE4F60FC
:0800BE0003750D0430B3FD22AF
:10026B001201DD7C007D081201528D0B1201DD7C29
:10027B00007D081201528D0CE4F53AE53AC3950A5C
:10028B005019740E253AF8E6B50B0C7422253AF882
:0B029B00E6B50C0312026B053A80E090
:0102A6002235
:10034500E50E650B7027E522650C702112026B74B2
:100355000D250AF8E6FF740E250AF8A6077421256F
:0E0365000AF8E6FF7422250AF8A607050A2208
:1002A700E4FDEDC3950A502D74222DF8E69004075E
:1002B70093FF1203A0740E2DF8E61203C67580FF94
:1002C700E50C90040793FF1203A0E50B1203C67514
:0502D70080FF0D80CD49
:0102DC0022FF
:1002DD00E50ED394075006E52294074007E4FF127C
:1002ED0003A080FE7F04EFC3950A5018740E2FF8FB
:1002FD00E6B50E0D74222FF8E6B522057580FF8048
:04030D00FE0F80E27D
:0103110022C9
:1003EF00438901758CD8758AF0D2A9D2AFD28C22ED
:1003DB001203EF12040F1202A71202DD12034512D1
:0403EB00000E80F28E
:03000B00020312DB
:0D031200C0E0C0D075D000C000C006C0071C
:10031F00758CD8758AF00509E509700205086432F5
:0B032F0045087007F508F50912022AC6
:0B033A00D007D006D000D0D0D0E032B9
:1000D2000203DBE493A3F8E493A34003F68001F266
:1000E20008DFF48029E493A3F85407240CC8C3332F
:1000F200C4540F4420C8834004F456800146F6DFFE
:10010200E4800B0102040810204080900373E47E17
:10011200019360BCA3FF543F30E509541FFEE493F2
:10012200A360010ECF54C025E060A840B8E493A3B9
:10013200FAE493A3F8E493A3C8C582C8CAC583CAE4
:10014200F0A3C8C582C8CAC583CADFE9DEE780BE9C
:01039F00005D
:10015200C2D5EC30E709B2D5E4C39DFDE49CFCEEC8
:1001620030E715B2D5E4C39FFFE49EFE120188C3B7
:10017200E49DFDE49CFC800312018830D507C3E4B2
:060182009FFFE49EFE2237
:1001DD00AC36AD37AE38AF397810EC4D4E4F7004AC
:1001ED007CA57DA5C3EC13FCED13FDEE13FEEF1303
:1001FD00FF5010EC64CCFCED644CFDEE644EFEEF54
:10020D0064CEFFD8DF8C368D378E388F39EE547F24
:0D021D00FE228E368F3774A5F538F5392294
:10018800BC000BBE0029EF8DF084FFADF022E4CC5B
:10019800F875F008EF2FFFEE33FEEC33FCEE9DEC24
:1001A800984005FCEE9DFE0FD5F0E9E4CEFD22ED6A
:1001B800F8F5F0EE8420D21CFEADF075F008EF2FB4
:1001C800FFED33FD4007985006D5F0F222C398FDA5
:0501D8000FD5F0EA2242
:00000001FF
